{
  "_format": "hh-sol-artifact-1",
  "contractName": "RegistroRecetas",
  "sourceName": "contracts/RegistroRecetas.sol",
  "abi": [
    {
      "anonymous": false,
      "inputs": [
        {
          "indexed": true,
          "internalType": "uint256",
          "name": "id",
          "type": "uint256"
        },
        {
          "indexed": true,
          "internalType": "bytes32",
          "name": "hashDoc",
          "type": "bytes32"
        },
        {
          "indexed": true,
          "internalType": "bytes32",
          "name": "pacienteId",
          "type": "bytes32"
        },
        {
          "indexed": false,
          "internalType": "uint64",
          "name": "timestamp",
          "type": "uint64"
        }
      ],
      "name": "RecetaRegistrada",
      "type": "event"
    },
    {
      "inputs": [
        {
          "internalType": "bytes32",
          "name": "pacienteId",
          "type": "bytes32"
        }
      ],
      "name": "recetasDe",
      "outputs": [
        {
          "internalType": "uint256[]",
          "name": "",
          "type": "uint256[]"
        }
      ],
      "stateMutability": "view",
      "type": "function"
    },
    {
      "inputs": [
        {
          "internalType": "bytes32",
          "name": "hashDoc",
          "type": "bytes32"
        },
        {
          "internalType": "bytes32",
          "name": "pacienteId",
          "type": "bytes32"
        },
        {
          "internalType": "bytes32",
          "name": "medicoUid",
          "type": "bytes32"
        }
      ],
      "name": "registrar",
      "outputs": [
        {
          "internalType": "uint256",
          "name": "id",
          "type": "uint256"
        }
      ],
      "stateMutability": "nonpayable",
      "type": "function"
    },
    {
      "inputs": [
        {
          "internalType": "uint256",
          "name": "",
          "type": "uint256"
        }
      ],
      "name": "registros",
      "outputs": [
        {
          "internalType": "bytes32",
          "name": "hashDocumento",
          "type": "bytes32"
        },
        {
          "internalType": "bytes32",
          "name": "pacienteId",
          "type": "bytes32"
        },
        {
          "internalType": "bytes32",
          "name": "medicoUid",
          "type": "bytes32"
        },
        {
          "internalType": "uint64",
          "name": "timestamp",
          "type": "uint64"
        },
        {
          "internalType": "address",
          "name": "registrador",
          "type": "address"
        }
      ],
      "stateMutability": "view",
      "type": "function"
    },
    {
      "inputs": [],
      "name": "total",
      "outputs": [
        {
          "internalType": "uint256",
          "name": "",
          "type": "uint256"
        }
      ],
      "stateMutability": "view",
      "type": "function"
    },
    {
      "inputs": [
        {
          "internalType": "bytes32",
          "name": "hashDoc",
          "type": "bytes32"
        }
      ],
      "name": "verificar",
      "outputs": [
        {
          "internalType": "bool",
          "name": "exists",
          "type": "bool"
        },
        {
          "internalType": "uint256",
          "name": "id",
          "type": "uint256"
        },
        {
          "internalType": "uint64",
          "name": "timestamp",
          "type": "uint64"
        }
      ],
      "stateMutability": "view",
      "type": "function"
    }
  ],
  "bytecode": "0x608060405234801561001057600080fd5b506105c4806100206000396000f3fe608060405234801561001057600080fd5b50600436106100575760003560e01c8063074cbd221461005c5780630a25b00c146100825780632ddbd13a146100a25780632fb967c0146100aa578063ded39a5d146100e4575b600080fd5b61006f61006a3660046104ad565b610132565b6040519081526020015b60405180910390f35b6100956100903660046104d9565b61036d565b60405161007991906104f2565b60005461006f565b6100bd6100b83660046104d9565b6103cf565b604080519315158452602084019290925267ffffffffffffffff1690820152606001610079565b6100f76100f23660046104d9565b610457565b6040805195865260208601949094529284019190915267ffffffffffffffff1660608301526001600160a01b0316608082015260a001610079565b6000836101735760405162461bcd60e51b815260206004820152600a6024820152694861736820766163696f60b01b60448201526064015b60405180910390fd5b600084815260026020526040902054156101c45760405162461bcd60e51b815260206004820152601260248201527148617368207961207265676973747261646f60701b604482015260640161016a565b6040805160a0810182528581526020810185815291810184815267ffffffffffffffff4281166060840190815233608085019081526000805460018181018355828052965160049091027f290decd9548b62a8d60345a988386fc84ba6bc95484008f6362f93160ef3e56381019190915596517f290decd9548b62a8d60345a988386fc84ba6bc95484008f6362f93160ef3e56488015593517f290decd9548b62a8d60345a988386fc84ba6bc95484008f6362f93160ef3e56587015590517f290decd9548b62a8d60345a988386fc84ba6bc95484008f6362f93160ef3e566909501805491516001600160a01b0316600160401b026001600160e01b031990921695909216949094179390931790925590546102e1919061054c565b60008481526001602081815260408320805480840182559084529220909101829055909150610311908290610565565b600085815260026020908152604091829020929092555167ffffffffffffffff421681528491869184917fd2176c4f49c23bf993eb16ab5679c81cccd7cbbcbb4cf45a3768945f2db538f8910160405180910390a49392505050565b6000818152600160209081526040918290208054835181840281018401909452808452606093928301828280156103c357602002820191906000526020600020905b8154815260200190600101908083116103af575b50505050509050919050565b600081815260026020526040812054819081908082036103fa57600080600093509350935050610450565b60008061040860018461054c565b8154811061041857610418610578565b9060005260206000209060040201905060018083610436919061054c565b60039092015490955090935067ffffffffffffffff169150505b9193909250565b6000818154811061046757600080fd5b60009182526020909120600490910201805460018201546002830154600390930154919350919067ffffffffffffffff811690600160401b90046001600160a01b031685565b6000806000606084860312156104c257600080fd5b505081359360208301359350604090920135919050565b6000602082840312156104eb57600080fd5b5035919050565b6020808252825182820181905260009190848201906040850190845b8181101561052a5783518352928401929184019160010161050e565b50909695505050505050565b634e487b7160e01b600052601160045260246000fd5b8181038181111561055f5761055f610536565b92915050565b8082018082111561055f5761055f610536565b634e487b7160e01b600052603260045260246000fdfea264697066735822122014082db759c0dab03326fc2adb4f34c874628ae04892ac812f7f82356667cccd64736f6c63430008140033",
  "linkReferences": {},
  "deployedLinkReferences": {}
}