{"contracts/RegistroRecetas.sol":{"RegistroRecetas":{"abi":[{"anonymous":false,"inputs":[{"indexed":true,"internalType":"uint256","name":"id","type":"uint256"},{"indexed":true,"internalType":"bytes32","name":"hashDoc","type":"bytes32"},{"indexed":true,"internalType":"bytes32","name":"pacienteId","type":"bytes32"},{"indexed":false,"internalType":"uint64","name":"timestamp","type":"uint64"}],"name":"RecetaRegistrada","type":"event"},{"inputs":[{"internalType":"bytes32","name":"pacienteId","type":"bytes32"}],"name":"recetasDe","outputs":[{"internalType":"uint256[]","name":"","type":"uint256[]"}],"stateMutability":"view","type":"function"},{"inputs":[{"internalType":"bytes32","name":"hashDoc","type":"bytes32"},{"internalType":"bytes32","name":"pacienteId","type":"bytes32"},{"internalType":"bytes32","name":"medicoUid","type":"bytes32"}],"name":"registrar","outputs":[{"internalType":"uint256","name":"id","type":"uint256"}],"stateMutability":"nonpayable","type":"function"},{"inputs":[{"internalType":"uint256","name":"","type":"uint256"}],"name":"registros","outputs":[{"internalType":"bytes32","name":"hashDocumento","type":"bytes32"},{"internalType":"bytes32","name":"pacienteId","type":"bytes32"},{"internalType":"bytes32","name":"medicoUid","type":"bytes32"},{"internalType":"uint64","name":"timestamp","type":"uint64"},{"internalType":"address","name":"registrador","type":"address"}],"stateMutability":"view","type":"function"},{"inputs":[],"name":"total","outputs":[{"internalType":"uint256","name":"","type":"uint256"}],"stateMutability":"view","type":"function"},{"inputs":[{"internalType":"bytes32","name":"hashDoc","type":"bytes32"}],"name":"verificar","outputs":[{"internalType":"bool","name":"exists","type":"bool"},{"internalType":"uint256","name":"id","type":"uint256"},{"internalType":"uint64","name":"timestamp","type":"uint64"}],"stateMutability":"view","type":"function"}],"evm":{"bytecode":{"linkReferences":{},"object":"608060405234801561001057600080fd5b506105c4806100206000396000f3fe608060405234801561001057600080fd5b50600436106100575760003560e01c8063074cbd221461005c5780630a25b00c146100825780632ddbd13a146100a25780632fb967c0146100aa578063ded39a5d146100e4575b600080fd5b61006f61006a3660046104ad565b610132565b6040519081526020015b60405180910390f35b6100956100903660046104d9565b61036d565b60405161007991906104f2565b60005461006f565b6100bd6100b83660046104d9565b6103cf565b604080519315158452602084019290925267ffffffffffffffff1690820152606001610079565b6100f76100f23660046104d9565b610457565b6040805195865260208601949094529284019190915267ffffffffffffffff1660608301526001600160a01b0316608082015260a001610079565b6000836101735760405162461bcd60e51b815260206004820152600a6024820152694861736820766163696f60b01b60448201526064015b60405180910390fd5b600084815260026020526040902054156101c45760405162461bcd60e51b815260206004820152601260248201527148617368207961207265676973747261646f60701b604482015260640161016a565b6040805160a0810182528581526020810185815291810184815267ffffffffffffffff4281166060840190815233608085019081526000805460018181018355828052965160049091027f290decd9548b62a8d60345a988386fc84ba6bc95484008f6362f93160ef3e56381019190915596517f290decd9548b62a8d60345a988386fc84ba6bc95484008f6362f93160ef3e56488015593517f290decd9548b62a8d60345a988386fc84ba6bc95484008f6362f93160ef3e56587015590517f290decd9548b62a8d60345a988386fc84ba6bc95484008f6362f93160ef3e566909501805491516001600160a01b0316600160401b026001600160e01b031990921695909216949094179390931790925590546102e1919061054c565b60008481526001602081815260408320805480840182559084529220909101829055909150610311908290610565565b600085815260026020908152604091829020929092555167ffffffffffffffff421681528491869184917fd2176c4f49c23bf993eb16ab5679c81cccd7cbbcbb4cf45a3768945f2db538f8910160405180910390a49392505050565b6000818152600160209081526040918290208054835181840281018401909452808452606093928301828280156103c357602002820191906000526020600020905b8154815260200190600101908083116103af575b50505050509050919050565b600081815260026020526040812054819081908082036103fa57600080600093509350935050610450565b60008061040860018461054c565b8154811061041857610418610578565b9060005260206000209060040201905060018083610436919061054c565b60039092015490955090935067ffffffffffffffff169150505b9193909250565b6000818154811061046757600080fd5b60009182526020909120600490910201805460018201546002830154600390930154919350919067ffffffffffffffff811690600160401b90046001600160a01b031685565b6000806000606084860312156104c257600080fd5b505081359360208301359350604090920135919050565b6000602082840312156104eb57600080fd5b5035919050565b6020808252825182820181905260009190848201906040850190845b8181101561052a5783518352928401929184019160010161050e565b50909695505050505050565b634e487b7160e01b600052601160045260246000fd5b8181038181111561055f5761055f610536565b92915050565b8082018082111561055f5761055f610536565b634e487b7160e01b600052603260045260246000fdfea264697066735822122014082db759c0dab03326fc2adb4f34c874628ae04892ac812f7f82356667cccd64736f6c63430008140033","opcodes":"PUSH1 0x80 PUSH1 0x40 MSTORE CALLVALUE DUP1 ISZERO PUSH2 0x10 JUMPI PUSH1 0x0 DUP1 REVERT JUMPDEST POP PUSH2 0x5C4 DUP1 PUSH2 0x20 PUSH1 0x0 CODECOPY PUSH1 0x0 RETURN INVALID PUSH1 0x80 PUSH1 0x40 MSTORE CALLVALUE DUP1 ISZERO PUSH2 0x10 JUMPI PUSH1 0x0 DUP1 REVERT JUMPDEST POP PUSH1 0x4 CALLDATASIZE LT PUSH2 0x57 JUMPI PUSH1 0x0 CALLDATALOAD PUSH1 0xE0 SHR DUP1 PUSH4 0x74CBD22 EQ PUSH2 0x5C JUMPI DUP1 PUSH4 0xA25B00C EQ PUSH2 0x82 JUMPI DUP1 PUSH4 0x2DDBD13A EQ PUSH2 0xA2 JUMPI DUP1 PUSH4 0x2FB967C0 EQ PUSH2 0xAA JUMPI DUP1 PUSH4 0xDED39A5D EQ PUSH2 0xE4 JUMPI JUMPDEST PUSH1 0x0 DUP1 REVERT JUMPDEST PUSH2 0x6F PUSH2 0x6A CALLDATASIZE PUSH1 0x4 PUSH2 0x4AD JUMP JUMPDEST PUSH2 0x132 JUMP JUMPDEST PUSH1 0x40 MLOAD SWAP1 DUP2 MSTORE PUSH1 0x20 ADD JUMPDEST PUSH1 0x40 MLOAD DUP1 SWAP2 SUB SWAP1 RETURN JUMPDEST PUSH2 0x95 PUSH2 0x90 CALLDATASIZE PUSH1 0x4 PUSH2 0x4D9 JUMP JUMPDEST PUSH2 0x36D JUMP JUMPDEST PUSH1 0x40 MLOAD PUSH2 0x79 SWAP2 SWAP1 PUSH2 0x4F2 JUMP JUMPDEST PUSH1 0x0 SLOAD PUSH2 0x6F JUMP JUMPDEST PUSH2 0xBD PUSH2 0xB8 CALLDATASIZE PUSH1 0x4 PUSH2 0x4D9 JUMP JUMPDEST PUSH2 0x3CF JUMP JUMPDEST PUSH1 0x40 DUP1 MLOAD SWAP4 ISZERO ISZERO DUP5 MSTORE PUSH1 0x20 DUP5 ADD SWAP3 SWAP1 SWAP3 MSTORE PUSH8 0xFFFFFFFFFFFFFFFF AND SWAP1 DUP3 ADD MSTORE PUSH1 0x60 ADD PUSH2 0x79 JUMP JUMPDEST PUSH2 0xF7 PUSH2 0xF2 CALLDATASIZE PUSH1 0x4 PUSH2 0x4D9 JUMP JUMPDEST PUSH2 0x457 JUMP JUMPDEST PUSH1 0x40 DUP1 MLOAD SWAP6 DUP7 MSTORE PUSH1 0x20 DUP7 ADD SWAP5 SWAP1 SWAP5 MSTORE SWAP3 DUP5 ADD SWAP2 SWAP1 SWAP2 MSTORE PUSH8 0xFFFFFFFFFFFFFFFF AND PUSH1 0x60 DUP4 ADD MSTORE PUSH1 0x1 PUSH1 0x1 PUSH1 0xA0 SHL SUB AND PUSH1 0x80 DUP3 ADD MSTORE PUSH1 0xA0 ADD PUSH2 0x79 JUMP JUMPDEST PUSH1 0x0 DUP4 PUSH2 0x173 JUMPI PUSH1 0x40 MLOAD PUSH3 0x461BCD PUSH1 0xE5 SHL DUP2 MSTORE PUSH1 0x20 PUSH1 0x4 DUP3 ADD MSTORE PUSH1 0xA PUSH1 0x24 DUP3 ADD MSTORE PUSH10 0x4861736820766163696F PUSH1 0xB0 SHL PUSH1 0x44 DUP3 ADD MSTORE PUSH1 0x64 ADD JUMPDEST PUSH1 0x40 MLOAD DUP1 SWAP2 SUB SWAP1 REVERT JUMPDEST PUSH1 0x0 DUP5 DUP2 MSTORE PUSH1 0x2 PUSH1 0x20 MSTORE PUSH1 0x40 SWAP1 KECCAK256 SLOAD ISZERO PUSH2 0x1C4 JUMPI PUSH1 0x40 MLOAD PUSH3 0x461BCD PUSH1 0xE5 SHL DUP2 MSTORE PUSH1 0x20 PUSH1 0x4 DUP3 ADD MSTORE PUSH1 0x12 PUSH1 0x24 DUP3 ADD MSTORE PUSH18 0x48617368207961207265676973747261646F PUSH1 0x70 SHL PUSH1 0x44 DUP3 ADD MSTORE PUSH1 0x64 ADD PUSH2 0x16A JUMP JUMPDEST PUSH1 0x40 DUP1 MLOAD PUSH1 0xA0 DUP2 ADD DUP3 MSTORE DUP6 DUP2 MSTORE PUSH1 0x20 DUP2 ADD DUP6 DUP2 MSTORE SWAP2 DUP2 ADD DUP5 DUP2 MSTORE PUSH8 0xFFFFFFFFFFFFFFFF TIMESTAMP DUP2 AND PUSH1 0x60 DUP5 ADD SWAP1 DUP2 MSTORE CALLER PUSH1 0x80 DUP6 ADD SWAP1 DUP2 MSTORE PUSH1 0x0 DUP1 SLOAD PUSH1 0x1 DUP2 DUP2 ADD DUP4 SSTORE DUP3 DUP1 MSTORE SWAP7 MLOAD PUSH1 0x4 SWAP1 SWAP2 MUL PUSH32 0x290DECD9548B62A8D60345A988386FC84BA6BC95484008F6362F93160EF3E563 DUP2 ADD SWAP2 SWAP1 SWAP2 SSTORE SWAP7 MLOAD PUSH32 0x290DECD9548B62A8D60345A988386FC84BA6BC95484008F6362F93160EF3E564 DUP9 ADD SSTORE SWAP4 MLOAD PUSH32 0x290DECD9548B62A8D60345A988386FC84BA6BC95484008F6362F93160EF3E565 DUP8 ADD SSTORE SWAP1 MLOAD PUSH32 0x290DECD9548B62A8D60345A988386FC84BA6BC95484008F6362F93160EF3E566 SWAP1 SWAP6 ADD DUP1 SLOAD SWAP2 MLOAD PUSH1 0x1 PUSH1 0x1 PUSH1 0xA0 SHL SUB AND PUSH1 0x1 PUSH1 0x40 SHL MUL PUSH1 0x1 PUSH1 0x1 PUSH1 0xE0 SHL SUB NOT SWAP1 SWAP3 AND SWAP6 SWAP1 SWAP3 AND SWAP5 SWAP1 SWAP5 OR SWAP4 SWAP1 SWAP4 OR SWAP1 SWAP3 SSTORE SWAP1 SLOAD PUSH2 0x2E1 SWAP2 SWAP1 PUSH2 0x54C JUMP JUMPDEST PUSH1 0x0 DUP5 DUP2 MSTORE PUSH1 0x1 PUSH1 0x20 DUP2 DUP2 MSTORE PUSH1 0x40 DUP4 KECCAK256 DUP1 SLOAD DUP1 DUP5 ADD DUP3 SSTORE SWAP1 DUP5 MSTORE SWAP3 KECCAK256 SWAP1 SWAP2 ADD DUP3 SWAP1 SSTORE SWAP1 SWAP2 POP PUSH2 0x311 SWAP1 DUP3 SWAP1 PUSH2 0x565 JUMP JUMPDEST PUSH1 0x0 DUP6 DUP2 MSTORE PUSH1 0x2 PUSH1 0x20 SWAP1 DUP2 MSTORE PUSH1 0x40 SWAP2 DUP3 SWAP1 KECCAK256 SWAP3 SWAP1 SWAP3 SSTORE MLOAD PUSH8 0xFFFFFFFFFFFFFFFF TIMESTAMP AND DUP2 MSTORE DUP5 SWAP2 DUP7 SWAP2 DUP5 SWAP2 PUSH32 0xD2176C4F49C23BF993EB16AB5679C81CCCD7CBBCBB4CF45A3768945F2DB538F8 SWAP2 ADD PUSH1 0x40 MLOAD DUP1 SWAP2 SUB SWAP1 LOG4 SWAP4 SWAP3 POP POP POP JUMP JUMPDEST PUSH1 0x0 DUP2 DUP2 MSTORE PUSH1 0x1 PUSH1 0x20 SWAP1 DUP2 MSTORE PUSH1 0x40 SWAP2 DUP3 SWAP1 KECCAK256 DUP1 SLOAD DUP4 MLOAD DUP2 DUP5 MUL DUP2 ADD DUP5 ADD SWAP1 SWAP5 MSTORE DUP1 DUP5 MSTORE PUSH1 0x60 SWAP4 SWAP3 DUP4 ADD DUP3 DUP3 DUP1 ISZERO PUSH2 0x3C3 JUMPI PUSH1 0x20 MUL DUP3 ADD SWAP2 SWAP1 PUSH1 0x0 MSTORE PUSH1 0x20 PUSH1 0x0 KECCAK256 SWAP1 JUMPDEST DUP2 SLOAD DUP2 MSTORE PUSH1 0x20 ADD SWAP1 PUSH1 0x1 ADD SWAP1 DUP1 DUP4 GT PUSH2 0x3AF JUMPI JUMPDEST POP POP POP POP POP SWAP1 POP SWAP2 SWAP1 POP JUMP JUMPDEST PUSH1 0x0 DUP2 DUP2 MSTORE PUSH1 0x2 PUSH1 0x20 MSTORE PUSH1 0x40 DUP2 KECCAK256 SLOAD DUP2 SWAP1 DUP2 SWAP1 DUP1 DUP3 SUB PUSH2 0x3FA JUMPI PUSH1 0x0 DUP1 PUSH1 0x0 SWAP4 POP SWAP4 POP SWAP4 POP POP PUSH2 0x450 JUMP JUMPDEST PUSH1 0x0 DUP1 PUSH2 0x408 PUSH1 0x1 DUP5 PUSH2 0x54C JUMP JUMPDEST DUP2 SLOAD DUP2 LT PUSH2 0x418 JUMPI PUSH2 0x418 PUSH2 0x578 JUMP JUMPDEST SWAP1 PUSH1 0x0 MSTORE PUSH1 0x20 PUSH1 0x0 KECCAK256 SWAP1 PUSH1 0x4 MUL ADD SWAP1 POP PUSH1 0x1 DUP1 DUP4 PUSH2 0x436 SWAP2 SWAP1 PUSH2 0x54C JUMP JUMPDEST PUSH1 0x3 SWAP1 SWAP3 ADD SLOAD SWAP1 SWAP6 POP SWAP1 SWAP4 POP PUSH8 0xFFFFFFFFFFFFFFFF AND SWAP2 POP POP JUMPDEST SWAP2 SWAP4 SWAP1 SWAP3 POP JUMP JUMPDEST PUSH1 0x0 DUP2 DUP2 SLOAD DUP2 LT PUSH2 0x467 JUMPI PUSH1 0x0 DUP1 REVERT JUMPDEST PUSH1 0x0 SWAP2 DUP3 MSTORE PUSH1 0x20 SWAP1 SWAP2 KECCAK256 PUSH1 0x4 SWAP1 SWAP2 MUL ADD DUP1 SLOAD PUSH1 0x1 DUP3 ADD SLOAD PUSH1 0x2 DUP4 ADD SLOAD PUSH1 0x3 SWAP1 SWAP4 ADD SLOAD SWAP2 SWAP4 POP SWAP2 SWAP1 PUSH8 0xFFFFFFFFFFFFFFFF DUP2 AND SWAP1 PUSH1 0x1 PUSH1 0x40 SHL SWAP1 DIV PUSH1 0x1 PUSH1 0x1 PUSH1 0xA0 SHL SUB AND DUP6 JUMP JUMPDEST PUSH1 0x0 DUP1 PUSH1 0x0 PUSH1 0x60 DUP5 DUP7 SUB SLT ISZERO PUSH2 0x4C2 JUMPI PUSH1 0x0 DUP1 REVERT JUMPDEST POP POP DUP2 CALLDATALOAD SWAP4 PUSH1 0x20 DUP4 ADD CALLDATALOAD SWAP4 POP PUSH1 0x40 SWAP1 SWAP3 ADD CALLDATALOAD SWAP2 SWAP1 POP JUMP JUMPDEST PUSH1 0x0 PUSH1 0x20 DUP3 DUP5 SUB SLT ISZERO PUSH2 0x4EB JUMPI PUSH1 0x0 DUP1 REVERT JUMPDEST POP CALLDATALOAD SWAP2 SWAP1 POP JUMP JUMPDEST PUSH1 0x20 DUP1 DUP3 MSTORE DUP3 MLOAD DUP3 DUP3 ADD DUP2 SWAP1 MSTORE PUSH1 0x0 SWAP2 SWAP1 DUP5 DUP3 ADD SWAP1 PUSH1 0x40 DUP6 ADD SWAP1 DUP5 JUMPDEST DUP2 DUP2 LT ISZERO PUSH2 0x52A JUMPI DUP4 MLOAD DUP4 MSTORE SWAP3 DUP5 ADD SWAP3 SWAP2 DUP5 ADD SWAP2 PUSH1 0x1 ADD PUSH2 0x50E JUMP JUMPDEST POP SWAP1 SWAP7 SWAP6 POP POP POP POP POP POP JUMP JUMPDEST PUSH4 0x4E487B71 PUSH1 0xE0 SHL PUSH1 0x0 MSTORE PUSH1 0x11 PUSH1 0x4 MSTORE PUSH1 0x24 PUSH1 0x0 REVERT JUMPDEST DUP2 DUP2 SUB DUP2 DUP2 GT ISZERO PUSH2 0x55F JUMPI PUSH2 0x55F PUSH2 0x536 JUMP JUMPDEST SWAP3 SWAP2 POP POP JUMP JUMPDEST DUP1 DUP3 ADD DUP1 DUP3 GT ISZERO PUSH2 0x55F JUMPI PUSH2 0x55F PUSH2 0x536 JUMP JUMPDEST PUSH4 0x4E487B71 PUSH1 0xE0 SHL PUSH1 0x0 MSTORE PUSH1 0x32 PUSH1 0x4 MSTORE PUSH1 0x24 PUSH1 0x0 REVERT INVALID LOG2 PUSH5 0x6970667358 0x22 SLT KECCAK256 EQ ADDMOD 0x2D 0xB7 MSIZE 0xC0 0xDA 0xB0 CALLER 0x26 0xFC 0x2A 0xDB 0x4F CALLVALUE 0xC8 PUSH21 0x628AE04892AC812F7F82356667CCCD64736F6C6343 STOP ADDMOD EQ STOP CALLER "},"methodIdentifiers":{"recetasDe(bytes32)":"0a25b00c","registrar(bytes32,bytes32,bytes32)":"074cbd22","registros(uint256)":"ded39a5d","total()":"2ddbd13a","verificar(bytes32)":"2fb967c0"}}}}}